:020000040000FA
:100000000C94BC020C94ED020C94ED020C94ED02E5
:100010000C94ED020C94ED020C94ED020C94ED02A4
:100020000C94ED020C94ED020C94ED020C94ED0294
:100030000C94ED020C945D3C0C94ED020C94ED02DA
:100040000C94ED020C94073E0C94ED020C94ED021E
:100050000C94ED020C94ED020C94ED020C94133C04
:100060000C94ED020C94473D0C941D3D0C94ED0254
:100070000C94ED020C94ED020C94ED020C94ED0244
:100080000C94D93D0C94ED020C94ED020C94ED020D
:100090000C94E73C0C94BD3C0C94ED020C94353E62
:1000A0000C94ED020C94ED020C94AB3D0C94ED021B
:1000B0000C94ED020C94ED020C94ED020C947D3D39
:1000C0000C94ED020C94ED020C94ED020C94ED02F4
:1000D0000C94ED020C94ED020C94ED020C94ED02E4
:1000E0000C94ED0207634236B79BD8A71A396856BD
:1000F00018AEBAAB558C1D3CB7CC5763BD6DEDFD4A
:10010000753EF6177231BF000000803F0800000006
:10011000BE922449123EABAAAA2ABECDCCCC4C3EFC
:1001200000000080BEABAAAAAA3E00000000BF00EB
:100130000000803F0000000000084178D3BB4387E7
:10014000D1133D190E3CC3BD4282AD2B3E68EC82FB
:1001500076BED98FE1A93E4C80EFFFBE01C4FF7F80
:100160003F00000000000C94200F0C948D280C948C
:1001700071080C944D080C9494080C94EE030C94A4
:10018000850B0C94AB1B0C9454280C94531A0C94B0
:10019000971B0C94E71B0C94F71A0C945F1C0C949F
:1001A000E90B0C94651B0C94371C0C945B1B0C9492
:1001B000E1030C9400040C9406040C94760B0C944C
:1001C000F0070C9434080C94C6080C94A8080C94FE
:1001D000831B0C94A70B0C94791B0C941F0F0C948D
:1001E000051C0C945F080C94ED0A0C94191C0C94DB
:1001F00038290C94E5030C94D61A0C94731C0C94B7
:10020000151B0C9485080C9420280C94551C0C94F8
:10021000D9030C942C080C94B51B0C949E080C94D8
:1002200071290C9476040C94BF1B0C947D1C0C94C7
:1002300067080C943D560C947B080C94B30D0C94F9
:10024000FA0D0C940E040C94F8030C94C91B0C9436
:100250000F1C0C94CD0D0C9443080C94291B0C948A
:10026000F11B0C94331B0C942D1C0C94FC030C946C
:10027000871C0C94FB1B0C94DD1B0C94AA290C947A
:100280006F1B0C944B1C0C94A30D0C940B1B0C9427
:10029000691C0C94990B0C941F1B0C94011B0C945F
:1002A000B2080C94231C0C9413040C948D1B0C9416
:1002B000E8030C94411C0C94FF280C94A40D0C949E
:1002C00018040C94C60D0C940A040C94D3030C94DB
:1002D00014040C94C6280C94A11B0C94E3290C94D0
:1002E000DD030C94360C0C9464110C94471B0C9495
:1002F000D31B0C94EE0A0C943D1B0C9457080C94E1
:1003000039080C9445040C94490B0C94BC080C94CB
:10031000ED1A0C94F2030C94D64E0C94511B4E41E2
:100320004E494E495459494E46CDCCCC3D0AD7236F
:100330003C17B7D13877CC2B329595E6241FB14FB7
:100340000A000020410000C84200401C4620BCBEFC
:100350004CCA1B0E5AAEC59D7400407A10F35A0069
:10036000A0724E18090010A5D4E80000E8764817DE
:100370000000E40B54020000CA9A3B000000E1F5C3
:1003800005000080969800000040420F000000A089
:100390008601000000102700000000E803000000B4
:1003A000006400000000000A0000000000010000DE
:1003B0000000002C76D888DC674F0823DFC1DFAE51
:1003C00059E1B1B796E5E3E453C63AE6519976961A
:1003D000E8E6C28426EB898C9B62ED407C6FFCEFE3
:1003E000BC9C9F40F2BAA56FA5F490055A2AF75C11
:1003F000936B6CF9676DC11BFCE0E40D47FEF520C3
:10040000E6B500D0ED902E0300943577050080848A
:100410001E080000204E0A000000C80C333333339E
:100420000F986E12831141EF8D2114893BE655160A
:10043000CFFEE6DB18D1844B381BF77C1D901DA442
:10044000BBE424203284725E228100C9F124ECA135
:10045000E53D2700002100240027002A002D003060
:1004600000330001010000040107010A010000201F
:10047000002300260029002C002F0032000001007C
:100480000003010601090100000A0B02090C0D0E10
:100490000807030401000000000000000000000045
:1004A000000000000000000000000000000000004C
:1004B0000000001211100000000000000000000009
:1004C0000000000000000000000000000001021019
:1004D000202008081020401020408002010201085E
:1004E000040201010204081020408080402010080E
:1004F0000402018004020180402010080402010867
:1005000004020101020408102040800102040810C6
:1005100020408000002200250028002B002E003102
:1005200000340002010000050108010B010505056A
:1005300005070508080808020202020A0A0808045A
:100540000404040101010101010101030303030388
:10055000030303040707070C0C0C0C0C0C0C0C0217
:1005600002020206060606060606060B0B0B0B0B1E
:100570000B0B0B02D64E3D5611241FBECFEFD1E21E
:10058000DEBFCDBF00E00CBF11E1A0E0B2E0EEE6BF
:10059000FAEC00E00BBF02C007900D92AE30B1073D
:1005A000D9F725E1AEE0B1E101C01D92AF31B2074C
:1005B000E1F712E0CBEBD2E000E006C021970109A1
:1005C000802FFE010E949C5FCA3BD10780E0080794
:1005D000A9F70E94E64F0C9425650C940000FC01DD
:1005E000A089B18982E08C93A485B5851C92A685EB
:1005F000B7858FEC8C93108EA489B58986E08C9397
:10060000A289B3898C9180618C93A289B3898C91E2
:1006100088608C93A289B3898C9180688C930288BE
:10062000F389E02D80818F7D80830895CF92DF92C2
:10063000EF92FF92DC01A03282E0B807D4F5A53B2F
:10064000B10514F0A4EBB0E040910B1528E830E0C0
:10065000241B310947FD3395220F331F220F331F0F
:100660006901330FEE08FF0840910C1528E532E0D0
:10067000241B310947FD3395220F331F220F331FEF
:10068000032E000C440B550B2C193D094E095F0934
:10069000B7FF02C0B0E0A0E00E94A45C24EB30E011
:1006A00040E050E00E947A5CC20ED31EE41EF51EAC
:1006B000D601E0910A15E03380F520910B1588E80A
:1006C00090E0821B910927FD9395880F991F880F51
:1006D000991FA817B90784F020910C1588E592E0BE
:1006E000821B910927FD9395880F991F880F991FE9
:1006F000A817B9070CF4CD010297880F991F4FB7BF
:10070000F8942E2F30E0F901EE0FFF1FE20FF31FD8
:10071000EC5FFB4E928381834FBFFF90EF90DF90A1
:10072000CF90089596E0899FD0011124A556BB4E25
:1007300090967C936E935F9791E091969C9391979E
:10074000E0910815F091091590910715992339F05A
:10075000309751F0811108C08091B71419943097E7
:1007600019F05C968C91FACF08958150823108F08F
:100770005AC0E82FF0E08827EF53FC4F8F4F0C94BE
:100780009C5FE103E503D303D903DD031304E8030E
:10079000EE03F203F803FC03000406040A04130446
:1007A0000E0414041804809180008F7780938000D9
:1007B0000895809180008F7DF9CF80918000877FA0
:1007C000F5CF84B58F7784BD089584B58F7DFBCF39
:1007D0008091B0008F778093B00008958091B00031
:1007E0008F7DF9CF809190008F778093900008954E
:1007F000809190008F7DF9CF80919000877FF5CF19
:100800008091A0008F778093A00008958091A00030
:100810008F7DF9CF8091A000877FF5CF8091200157
:100820008F77809320010895809120018F7DF9CFEB
:1008300080912001877FF5CFCF93DF93282F30E081
:10084000F901E957FB4F8491F901E353FB4FD49130
:10085000F901E35DFA4FC491CC23A1F081110E940C
:10086000B503EC2FF0E0EE0FFF1FE359FB4FA5910E
:10087000B491EC91ED2381E090E009F480E0DF9108
:10088000CF91089580E090E0FACF862F0C941C045D
:100890001F93CF93DF93282F30E0F901E957FB4FE7
:1008A0008491F901E353FB4FD491F901E35DFA4FD1
:1008B000C491CC23A9F0162F81110E94B503EC2F0F
:1008C000F0E0EE0FFF1FED5EFA4FA591B4918FB7E8
:1008D000F894EC91111108C0D095DE23DC938FBF02
:1008E000DF91CF911F910895DE2BF8CF862F642FD3
:1008F0000C944804CF93DF9390E0FC01E353FB4F4B
:100900002491835D9A4FFC0184918823C9F090E083
:10091000880F991FFC01ED5AFB4FA591B491FC0182
:10092000ED5EFA4FC591D49161110DC09FB7F89457
:100930008C91209582238C938881282328839FBFC4
:10094000DF91CF910895623051F49FB7F8943C91B4
:10095000822F809583238C93E8812E2BEFCF8FB746
:10096000F894EC912E2B2C938FBFEACF4F925F928D
:100970006F927F928F929F92AF92BF92CF92DF92AF
:10098000EF92FF920F931F93CF93DF9300D01F92AC
:100990001F92CDB7DEB78C012A013B018091250261
:1009A0008133C9F08F3F09F492C00F900F900F90E0
:1009B0000F900F90DF91CF911F910F91FF90EF90CB
:1009C000DF90CF90BF90AF909F908F907F906F906F
:1009D0005F904F900895E3E7F5E084918D8387FD64
:1009E000E4CF61E081E30E947A049D81992321F0A4
:1009F0008D81823009F0D2C14801B12CA12C60E078
:100A000072E18AE790E0A50198010E947A5C29834F
:100A10003A834B835C8369017A0191E0C91AD1085A
:100A2000E108F1088FEFC816D104E104F10409F0E0
:100A30000CF483C160E472E48FE090E0A5019801BA
:100A40000E947A5C69017A0191E0C91AD108E10833
:100A5000F1088D81823009F011C182E09FEFC91643
:100A6000D104E104F10409F00CF460C160E970ED17
:100A700083E090E0A50198010E947A5C69017A0107
:100A800081E0C81AD108E108F10883E09FEFC91698
:100A9000D104E104F10409F00CF448C168E478EEF3
:100AA00081E090E0A50198010E947A5C69017A01D9
:100AB00091E0C91AD108E108F1088FEFC816D104F6
:100AC000E104F10411F00CF019C184E02FC181E3BD
:100AD00080932502E3E7F5E094919D83892F9F3F62
:100AE00009F463CF923009F469C060F4992381F16D
:100AF000913009F445C087FD58CF61E081E30E9441
:100B00007A0476CF9D81943009F49AC008F478C0B5
:100B1000953089F7109220011092210180912101D6
:100B2000886080932101809121018160809321015F
:100B3000EEE5F5E0E491F0E0EE0FFF1FED5EFA4F19
:100B400085919491EEEFF4E0E491E0939E1249CF09
:100B500014BC15BC84B5826084BD85B5816085BD3B
:100B6000EEE5F5E0E491F0E0EE0FFF1FED5EFA4FE9
:100B700085919491EEEFF4E0E491E093A51231CFEA
:100B80001092800010928100809181008860809393
:100B9000810080918100816080938100EEE5F5E025
:100BA000E491F0E0EE0FFF1FED5EFA4F8591949116
:100BB000EEEFF4E0E491E093A41213CF1092B000B2
:100BC0001092B1008091B00082608093B00080915B
:100BD000B10081608093B100EEE5F5E0E491F0E0D2
:100BE000EE0FFF1FED5EFA4F859194919093A31243
:100BF0008093A212EEEFF4E0E491E093A112F1CE23
:100C000010929000109291008091910088608093E2
:100C1000910080919100816080939100EEE5F5E074
:100C2000E491F0E0EE0FFF1FED5EFA4F8591949195
:100C3000EEEFF4E0E491E093A01283E08D83D1CE57
:100C40001092A0001092A1008091A1008860809372
:100C5000A1008091A10081608093A100EEE5F5E004
:100C6000E491F0E0EE0FFF1FED5EFA4F8591949155
:100C7000EEEFF4E0E491E0939F12B3CE8FEFC8164D
:100C8000D104E104F10409F00CF486C068E478EEC4
:100C900081E090E0A50198010E947A5C69017A01E7
:100CA00091E0C91AD108E108F1088D81882309F47F
:100CB0008DC18FEFC816D104E104F10409F00CF4E2
:100CC00004CF62E17AE780E090E0A50194010E9400
:100CD0007A5C69017A0191E0C91AD108E108F1084A
:100CE0008D81882309F447C18FEFC816D104E10430
:100CF000F10411F008F048C186E018C064E274EF16
:100D000080E090E0A50194010E947A5C69017A017B
:100D100091E0C91AD108E108F1088FEFC816D10493
:100D2000E104F10411F008F041C185E09091B100B7
:100D3000987F892B8093B10008C081E09D8191113B
:100D4000F5CF95B5987F892B85BD2FEF3FEFA90192
:100D5000411451046104710409F049C09D8192302D
:100D600009F4E7C00CF0CEC0992309F4D3C0913048
:100D700009F01BCED0928900C09288002093B61251
:100D80003093B7124093B8125093B91280916F000C
:100D9000826080936F0009CE82E0D0CFB12CA12C6D
:100DA00060E072E18AE790E0A50198010E947A5C18
:100DB00069017A0181E0C81AD108E108F108C1147B
:100DC000D10491E0E906F10404F591E08D818130D0
:100DD00069F580918100887F892B809381002FEFB6
:100DE0003FEFA901411451046104710419F2D801C3
:100DF000AA0FBB1FA30192010E94995C28EE33E069
:100E000040E050E00E94AC5CA9CF68E478EE81E05D
:100E100090E0A50198010E947A5C69017A0181E065
:100E2000C81AD108E108F10893E0D0CF8D81833052
:100E300001F580919100887F892B809391002FEF9D
:100E40003FEFA901411451046104710481F6D0926D
:100E50009900C09298002093AE123093AF12409345
:100E6000B0125093B1128091710082608093710032
:100E70009CCD8D81843009F58091A100887F892BDC
:100E80008093A1002FEF3FEFA901411451046104A9
:100E9000710409F0ACCFD092A900C092A8002093B1
:100EA000AA123093AB124093AC125093AD128091C2
:100EB000720082608093720078CD8D81853009F058
:100EC00044CF80912101887F892B809321012FEFCE
:100ED0003FEFA901411451046104710409F087CF67
:100EE000D0922901C09228012093A6123093A71214
:100EF0004093A8125093A91280917300826080934E
:100F0000730053CD8D81843031F20CF4A0CF853045
:100F100039F34BCDC7BC2093BA123093BB12409328
:100F2000BC125093BD1280916E00826080936E005F
:100F30003CCDC092B3002093B2123093B3124093D1
:100F4000B4125093B512809170008260809370004B
:100F50002CCDC980DA80EB80FC809AE0F594E79490
:100F6000D794C7949A95D1F791E0C91AD108E108AE
:100F7000F10885E0E6CE8FEFC816D104E104F10454
:100F800009F038F784E0DDCEC980DA80EB80FC80A0
:100F90008AE0F594E794D794C7948A95D1F791E0C5
:100FA000C91AD108E108F10887E0C0CE62E17AE70A
:100FB00080E090E0A50194010E947A5C69017A01C9
:100FC00091E0C91AD108E108F1088ECE83E09FEFC5
:100FD000C916D104E104F10411F00CF072CEB1CEC7
:100FE000862F642F0C947A041F93CF93DF93182FCE
:100FF000EB0161E00E947A04209739F460E0812FD0
:10100000DF91CF911F910C944804CF3FD10511F48B
:1010100061E0F5CFE12FF0E0E957FB4FE491E150BB
:10102000E23108F0B3C0F0E08827E65EF74F8F4F5B
:101030000C949C5F2C083408390843084D08C608F6
:1010400057085F08670871087B08850894089E08A0
:10105000C608A808B208BC0884B5806884BDC7BDAE
:10106000DF91CF911F91089584B5806284BDC8BD82
:10107000F7CF80918000806880938000D0938900B2
:10108000C0938800EDCF80918000806280938000C3
:10109000D0938B00C0938A00E3CF8091800088605A
:1010A00080938000D0938D00C0938C00D9CF809125
:1010B000B00080688093B000C093B300D1CF80911E
:1010C000B00080628093B000C093B400C9CF80911B
:1010D0009000806880939000D0939900C09398000E
:1010E000BFCF80919000806280939000D0939B004E
:1010F000C0939A00B5CF8091900088608093900053
:10110000D0939D00C0939C00ABCF8091A0008068DD
:101110008093A0008091A0008F7B8093A000D0934B
:10112000A900C093A8009CCF8091A000806280930A
:10113000A000D093AB00C093AA0092CF8091A000F2
:1011400088608093A000D093AD00C093AC0088CF9E
:1011500080912001806880932001D0932901C09361
:1011600028017ECF80912001806280932001D0935E
:101170002B01C0932A0174CF809120018860809355
:101180002001D0932D01C0932C016ACFC038D10526
:101190000CF03ECF33CF865320917B00982F987F61
:1011A000277F922B90937B008770806480937C00D4
:1011B00080917A00806480937A0080917A0086FD25
:1011C000FCCF809178009091790008953FB7F89412
:1011D0008091951290919612A0919712B0919812C9
:1011E00026B5A89B05C02F3F19F00196A11DB11D82
:1011F0003FBFBA2FA92F982F8827BC01CD01620FBE
:10120000711D811D911D42E0660F771F881F991F78
:101210004A95D1F708958F929F92AF92BF92CF9245
:10122000DF92EF92FF926B017C010E94E6084B0176
:101230005C01C114D104E104F104B9F00E94E60894
:10124000681979098A099B09683E734081059105EF
:1012500080F321E0C21AD108E108F10888EE880E77
:1012600083E0981EA11CB11CE4CFFF90EF90DF90AB
:10127000CF90BF90AF909F908F9008952FB7F89424
:1012800060919112709192128091931290919412A8
:101290002FBF08950F931F93CF93DF93C82FD62F9F
:1012A00086E0C89FF0011124E556FB4E11A2878D00
:1012B00090A181309105F1F058F082309105F1F163
:1012C000039709F440C0DF91CF911F910F910895CA
:1012D0006623C9F361E070E08C2F0E9492030E94A4
:1012E0003E096093F3147093F4148093F514909373
:1012F000F614E9CF0E943E090091F3141091F41402
:101300002091F5143091F614AB01BC01401B510B38
:10131000620B730B8091051590910615B0E0A0E06B
:1013200084179507A607B70748F462E070E08C2F92
:10133000DF91CF911F910F910C94920363E070E0C5
:10134000D111C1CFF4CF70E060E0F1CF6F927F9206
:101350008F929F92AF92BF92CF92DF92EF92FF92C5
:101360000F931F93CF93DF9381E0809307150E9423
:101370003E090091F7141091F8142091F91430915E
:10138000FA14AB01BC01401B510B620B730B809133
:10139000031590910415B0E0A0E084179507A60707
:1013A000B70708F014C1C0E080910115C81760F4B8
:1013B000E091FD14F091FE14EC0FF11D62E08081CC
:1013C0000E947A04CF5FF0CF712C812C912C5401B4
:1013D000839480910215781608F05FC0072D10E005
:1013E000E091FF14F0910015E00FF11F61E08081A2
:1013F0000E947A04E091FF14F0910015E00FF11FB4
:1014000060E080810E944804D501C401072C04C01B
:10141000880F991FAA1FBB1F0A94D2F76C017C0189
:10142000E094F094612C809101156816F8F4C62DB3
:10143000D0E0E091FD14F091FE14EC0FFD1F8081CF
:101440000E941C042496CC0FDD1FC556DB4E892B51
:1014500041F4888199818C299D299983888363949B
:10146000E2CF888199818E219F21F7CFE091FF14EF
:10147000F0910015E00FF11F61E080810E944804A7
:101480008091FF1490910015080F191F60E0F8017A
:1014900080810E947A0473949CCFCBE9D4E1FE0151
:1014A0008FEF9FEF278D30A1232B21F4148E968F81
:1014B000858F11A2369624E1E73DF20799F7F12CCA
:1014C00096E0D92E80910115F81608F050C0E12C55
:1014D0000F2D10E0000F111F0D551B4E209102150E
:1014E000E21608F042C0F801608171810E2C02C042
:1014F000769567950A94E2F7F29E900111242E0DDD
:10150000311DEBE9F4E180E0458D568D2417350758
:1015100009F461C08F5F36968A30B1F760FF23C04F
:10152000EBE9F4E190E080E0448D411117C0E091D7
:10153000FB14F091FC14E20FF31F4081D89EF001E0
:10154000D99EF00D1124E556FB4E448F368F258F22
:1015500010A2178E61E00E944A0905C001963696D6
:101560008A30910509F7E394B9CFF394ABCF10E03B
:1015700089A18111182F2696F4E1C73DDF07C1F735
:101580000E943E096093F7147093F8148093F91445
:101590009093FA141123D9F08091BC148823B9F0E8
:1015A0008091BA149091BB14019789F48091B7147B
:1015B000DF91CF911F910F91FF90EF90DF90CF902F
:1015C000BF90AF909F908F907F906F9008951092F2
:1015D000071580E0EDCF6170BECF0895089590911A
:1015E000250289130DC0E3E7F5E0E4919FEF9093A6
:1015F0002502E230E1F038F4EE2381F0E13089F0A9
:1016000060E00C944804E43049F110F1E530C1F792
:10161000909173009D7F90937300F2CF10926E00B3
:10162000EFCF90916F009D7F90936F00E9CF9091E5
:1016300070009D7F9093700091E09093B000909126
:10164000B100987F94609093B1001092B300D8CF0E
:10165000909171009D7F90937100D2CF9091720014
:101660009D7F90937200CCCFDC01ED91FC910190B5
:10167000F081E02D1994DB0114964D915C91159742
:101680006D917C91DC01ED91FC910280F381E02D64
:101690001994AF92BF92CF92DF92EF92FF920F9385
:1016A0001F93CF93DF936C017B018B01040F151FF8
:1016B000EB015E01AE18BF08C017D10759F0699160
:1016C000D601ED91FC910190F081E02DC6011995B4
:1016D000892B79F7C501DF91CF911F910F91FF9071
:1016E000EF90DF90CF90BF90AF900895FC01538DA5
:1016F000448D252F30E0842F90E0821B930B5417EC
:1017000010F0CF96089501970895FC01918D828D78
:10171000981761F0A28DAE0FBF2FB11D5D968C9111
:10172000928D9F5F9F73928F90E008958FEF9FEF50
:101730000895FC01918D828D981731F0828DE80F0C
:10174000F11D858D90E008958FEF9FEF0895FC01C6
:10175000918D228D892F90E0805C9F4F821B910993
:101760008F73992708958EEB92E10E94A70B21E0D9
:10177000892B09F420E0822F08958BE593E10E94E4
:10178000A70B21E0892B09F420E0822F0895FC01AA
:10179000A48DA80FB92FB11DA35ABF4F2C91848DD2
:1017A00090E001968F739927848FA689B7892C932F
:1017B000A089B1898C91837080648C93938D848D82
:1017C000981306C00288F389E02D80818F7D808385
:1017D0000895EF92FF920F931F93CF93DF93EC0145
:1017E00081E0888F9B8D8C8D98131AC0E889F989C8
:1017F000808185FF15C09FB7F894EE89FF896083CB
:10180000E889F98980818370806480839FBF81E04B
:1018100090E0DF91CF911F910F91FF90EF9008958D
:10182000F62E0B8D10E00F5F1F4F0F731127E02E68
:101830008C8D8E110CC00FB607FCFACFE889F989A0
:10184000808185FFF5CFCE010E94C70BF1CFEB8DD4
:10185000EC0FFD2FF11DE35AFF4FF0829FB7F89474
:101860000B8FEA89FB8980818062CFCFCF93DF9392
:10187000EC01888D8823B9F0AA89BB89E889F989A8
:101880008C9185FD03C0808186FD0DC00FB607FCDD
:10189000F7CF8C9185FFF2CF808185FFEDCFCE0110
:1018A0000E94C70BE9CFDF91CF91089580E090E0CF
:1018B000892B29F00E94BD0B81110E94000080E05D
:1018C00090E0892B29F00E94B30B81110E94000047
:1018D00080E090E0892B49F080E090E0892B29F0AE
:1018E0000E94000081110E94000080E090E0892B9E
:1018F00049F080E090E0892B29F00E9400008111DE
:101900000C9400000895AF92BF92CF92DF92EF92B5
:10191000FF920F931F93CF93DF936B017A01EC013A
:10192000C658DD4E28813CE0389F8001399F100D5C
:101930001124A0909414B12C27FF1FC0FB01118229
:10194000108288818F5F888388819801280F311DDC
:1019500087FD3A95F6012A153B051CF488818C30E9
:10196000C4F180819181049680349C4908F473C04D
:10197000F60180819181049670C088819801280FBA
:10198000311D87FD3A952A153B05DCF68881A801B3
:10199000480F511D87FD5A95FA01EE0FFF1FE40F06
:1019A000F51FEC5FFB4E808186FFCBCF8881F8016D
:1019B000E80FF11D87FDFA95CF01EE0FFF1FE80F2D
:1019C000F91FEC5FFB4E808160E08F730E9448043A
:1019D000B8CF808191812881A801420F511D27FD38
:1019E0005A959A01FA01EE0FFF1FE20FF31FEC5F09
:1019F000FB4E21813281820F931FF70191838083F7
:101A000088819801280F311D87FD3A95F901EE0F65
:101A1000FF1FE20FF31FEC5FFB4E808186FF22C0A9
:101A20008881080F111D87FD1A95F801EE0FFF1F21
:101A3000E00FF11FEC5FFB4E808161E08F73DF915F
:101A4000CF911F910F91FF90EF90DF90CF90BF90BB
:101A5000AF900C94480480E49CE9F7019183808363
:101A60008FEF8883DF91CF911F910F91FF90EF90BF
:101A7000DF90CF90BF90AF90089520913012260F45
:101A80003327331F21323105ECF420915412FC012D
:101A900090E080E0243069F082E00895A091301257
:101AA0002191AC01405F5D4EA40FB52FB11D2C9369
:101AB0000196861798F380913012680F6093301268
:101AC00080E0089581E008951092541281E080939F
:101AD00056121092551261E084E10E94480461E0C0
:101AE00085E10E944804E9EBF0E080818E7F8083ED
:101AF00080818D7F808388E48093B80085E4809323
:101B0000BC000895CF93DF9391E090930F12882348
:101B1000B9F0C091B800D091BA008091BC008A7B26
:101B20008093BC0060E084E10E94480460E085E1AD
:101B30000E9448040E94640DD093BA00C093B8007C
:101B4000DF91CF9108950895E091851280918412DC
:101B5000E81730F4F0E0E651FE4E808190E0089501
:101B60008FEF9FEF089590918512809184122FEF4F
:101B70003FEF981748F4E92FF0E0E651FE4E208140
:101B800030E09F5F90938512C9010895809184127F
:101B900090918512891B990B0895CF92DF92EF9255
:101BA000FF920F931F93CF93DF937C01CB018A01A8
:101BB0002091E911222389F0EB016B01C40ED51E9F
:101BC000CC15DD0569F06991D701ED91FC9101908B
:101BD000F081E02DC7011995F3CF642F0E943D0DD0
:101BE000C801DF91CF911F910F91FF90EF90DF908F
:101BF000CF900895CF93DF931F92CDB7DEB769835F
:101C00002091E9112223F9F020918212203258F01C
:101C100021E030E0FC013383228390E080E00F90EC
:101C2000DF91CF91089580918312E82FF0E0E75380
:101C3000FE4E998190838F5F8093831280938212EE
:101C400081E090E0ECCF61E0CE0101960E943D0D75
:101C5000F7CFCF92DF92EF92FF920F931F93CF9324
:101C6000DF93FC01C48121E02093E911C093C811E6
:101C700010928312109282128385682B88EF93E171
:101C80000E94FA0DD0918212D13208F092C00E94C7
:101C9000E6086B017C0180915412811165C082E0DD
:101CA0008093541281E0809356128FEF80935312E9
:101CB00010927812D0937712A9ECB1E1E7E5F2E146
:101CC00080E0D81385C01092791280917912CC0FE0
:101CD000C82BC093791280915512813009F07CC0D5
:101CE000109255120E94E6086B017C0180917912D6
:101CF0008093BB0080910B1290910C12A0910D1259
:101D0000B0910E12892B8A2B8B2B99F00E94E6083A
:101D100000910B1210910C1220910D1230910E12A5
:101D20006C197D098E099F090617170728073907BF
:101D3000E0F18091BC0083FDD9CF85EC8093BC009D
:101D40000E94E6086B017C0180915412823009F4F4
:101D500045C0809153128F3F61F1809153128032C0
:101D600041F18091531225C080910B1290910C1279
:101D7000A0910D12B0910E12892B8A2B8B2B09F496
:101D80008ACF0E94E60800910B1210910C1220914C
:101D90000D1230910E126C197D098E099F090617DC
:101DA00017072807390708F076CF80910A120E949A
:101DB000820D10928312109282121092E911DF911B
:101DC000CF911F910F91FF90EF90DF90CF900895EA
:101DD0009D9191938F5F75CF85EEB0CF80910B125F
:101DE00090910C12A0910D12B0910E12892B8A2B9A
:101DF0008B2B09F4A9CF0E94E60800910B121091D9
:101E00000C1220910D1230910E126C197D098E0961
:101E10009F09061717072807390708F095CFC5CF80
:101E20001092181560E08DE095E10C94290E88E081
:101E30008093181560E08DE095E10C94290E0895CB
:101E400090E080E00895CF92DF92EF92FF920F939F
:101E50001F93CF93DF9300D000D000D01F92CDB757
:101E6000DEB72AE0E8E4F2E0DE01119601900D927F
:101E70002A95E1F721E030E02C0F3D1F820F931FE0
:101E8000FC01E08087EAC82E83E0D82E10E000E055
:101E9000F12CF6018081F2E0CF0ED11CB701002EAB
:101EA00002C0759567950A94E2F761700E94480434
:101EB0000F5F1F4F0730110561F72A960FB6F89490
:101EC000DEBF0FBECDBFDF91CF911F910F91FF906D
:101ED000EF90DF90CF900895EF92FF920F931F93B2
:101EE000CF93DF93805300E08B3228F4E82FF0E0AB
:101EF000E458FC4F008187EAE82E83E0F82ED0E01A
:101F0000C0E010E0F7018081F2E0EF0EF11CB801B3
:101F10000C2E02C0759567950A94E2F761700E94D5
:101F200048042196C930D10569F7DF91CF911F91FF
:101F30000F91FF90EF900895CF93DF93C7EAD3E01E
:101F40008881229660E00E94480483E0C53BD80760
:101F5000B9F7DF91CF9108954F925F926F927F9280
:101F6000AF92BF92CF92DF92EF92FF920F931F93A7
:101F7000CF93DF93CDB7DEB762970FB6F894DEBF8D
:101F80000FBECDBF88E0E2E5F2E0DE011B960190D6
:101F90000D928A95E1F78AE0EAE5F2E0DE0111961A
:101FA00001900D928A95E1F7CE0101967C016E01B8
:101FB0009BE0C90ED11C10E000E098ECA92EB12CDA
:101FC000F701619171917F0177FF02C06D5F7F4FD3
:101FD0007595679575956795C5010E94885F2B017A
:101FE000770F66087708B301A201F60181919191FC
:101FF0006F010E94B60461E00115110509F03FC0B0
:1020000086E10E94480461E087E00E94480460E0A5
:1020100088E00E94480460E08CE00E944804C3010C
:10202000B2010E940B0981E30E94EF0A60E087E0A1
:102030000E94480460E088E00E94480460E08CE070
:102040000E9448040E949C0F0F5F1F4F0330110530
:1020500009F0B6CF62960FB6F894DEBF0FBECDBFC3
:10206000DF91CF911F910F91FF90EF90DF90CF9074
:10207000BF90AF907F906F905F904F900895013028
:10208000110549F48CE10E94480460E087E00E9459
:10209000480461E0BDCF89E10E94480460E087E028
:1020A0000E94480460E088E00E94480461E0B4CFE8
:1020B000CF93DF9340E050E0BA018E3209F58CED0A
:1020C00090E00E94B604C4E6D0E061E088E00E949F
:1020D000480460E087E00E944804BE01DD0F880BE1
:1020E000990B0E940B0981E30E94EF0A60E088E0EF
:1020F0000E94480461E087E0DF91CF910C9448048E
:1021000085EA90E00E94B604CCE2D1E0DECFCF9326
:10211000DF93EC0144E650E060E070E08BE092E099
:102120000E94B604BE01DD0F880B990B0E940B09BB
:1021300081E3DF91CF910C94EF0A70E060E08AE0D8
:102140000E94F40770E060E08BE00E94F40760E01A
:1021500082E30E94480460E083E30E94480460E058
:1021600084E30E94480460E085E30C94480460E046
:1021700082E30E94480461E083E30E94480460E037
:1021800084E30E94480461E085E30C94480461E024
:1021900082E30E94480460E083E30E94480461E017
:1021A00084E30E94480460E085E30C94480460E006
:1021B00082E30E94480461E083E30E94480461E0F6
:1021C00084E30E94480460E085E30C94480461E0E5
:1021D00082E30E94480460E083E30E94480460E0D8
:1021E00084E30E94480461E085E30C9448040F9363
:1021F0001F93CF938C01C62F0E94290E6C2F646011
:10220000C8010E94290E6C2F6B7FC8010E94290E05
:1022100083EC90E00197F1F7CF911F910F91089512
:102220000F931F93CF93DF938C01D62FC42F607F22
:10223000642B0E94F71080E1D89FB00111246C2B11
:10224000C801DF91CF911F910F910C94F710CF939C
:10225000DF9300D000D01F921F92CDB7DEB798E079
:10226000E4E6F2E0DE01119601900D929A95E1F715
:1022700090911515961710F46FEF690F262F30E027
:10228000220F331F41E050E04C0F5D1F240F351F1C
:10229000F9016081680F606840E08DE095E1289663
:1022A0000FB6F894DEBF0FBECDBFDF91CF910C9477
:1022B000101140E061E08DE095E10E9410118BE388
:1022C0009FE10197F1F7089541E00E94101181E02C
:1022D00090E00895FF920F931F93CF93DF93EC014B
:1022E0008B01FB01F0800E94645CF81621F06F2DD9
:1022F000CE010E946C5CF801F1802196CE010E9413
:10230000645CF81621F06F2DCE010E946C5CC80150
:10231000DF91CF911F910F91FF9008950F931F931D
:10232000CF93DF938C01EB010E94645C8883C8012A
:1023300001960E94645C8983CE01DF91CF911F9149
:102340000F910895FB0101900020E9F73197AF014B
:10235000461B570BDC01ED91FC910280F381E02DCF
:1023600019948F929F92AF92BF92EF92FF920F9328
:102370001F93CF93DF93CDB7DEB7A1970FB6F89435
:10238000DEBF0FBECDBF7C01FA01CB0119A2223006
:1023900008F42AE08E010F5D1F4F822E912CB12C84
:1023A000A12CBF01A50194010E94AC5CF901CA01F6
:1023B0006A300CF5605DD8016E938D01232B242BC0
:1023C000252B79F790E080E0109721F0BD01C7013F
:1023D0000E94A211A1960FB6F894DEBF0FBECDBF2A
:1023E000DF91CF911F910F91FF90EF90BF90AF9031
:1023F0009F908F900895695CDECFCF92DF92EF922D
:10240000FF920F931F93CF93DF9377FF1DC06A0155
:102410007B01EC016DE20E94340B8C0144275527AF
:10242000BA014C195D096E097F092AE0CE010E94AC
:10243000B111800F911FDF91CF911F910F91FF90EC
:10244000EF90DF90CF9008952AE0DF91CF911F9118
:102450000F91FF90EF90DF90CF900C94B111AB01F2
:10246000770F660B770B0C94FD110F931F93CF938F
:10247000DF93EC010E942F128C016FEE73E0CE010E
:102480000E94A211800F911FDF91CF911F910F9198
:1024900008950F931F93CF93DF93EC010E94A21135
:1024A0008C016FEE73E0CE010E94A211800F911F8C
:1024B000DF91CF911F910F9108950F931F93CF93A9
:1024C000DF93EC010E943B0B8C016FEE73E0CE01B9
:1024D0000E94A211800F911FDF91CF911F910F9148
:1024E00008950C94A211EF92FF920F931F93CF9334
:1024F000DF938C01D62FFC012481358180E190E0AF
:10250000821B930BC0E08F3FFFEF9F072CF097FDDE
:10251000019695958795C82F6D2F80E00E94271111
:1025200080E1E82EF12C61E474E08DE095E10E94F9
:10253000711221E0E21AF108B1F76D2F8C2F0E9481
:102540002711B8018DE095E1DF91CF911F910F9197
:10255000FF90EF900C943B0BCF93C82F0E946C0F11
:10256000C134F9F48EE20E94581064E670E080E015
:1025700090E00E940B098DE20E94581064E675E01D
:102580008BE593E10E94491264E675E08EEB92E1DF
:102590000E9449126CE271E080E090E0CF910C94CF
:1025A0000B09CD32C9F58DE20E94581064E670E047
:1025B00080E090E00E940B098EE20E94581064E6D1
:1025C00070E080E090E00E940B098EE20E945810BB
:1025D00064E670E080E090E00E940B098EE20E94C9
:1025E000581064E670E080E090E00E940B098EE2F3
:1025F0000E94581064E670E080E090E00E940B09B1
:102600008DE20E94581062EF73E08BE593E10E9427
:10261000491262EF73E0BACFC23439F58DE20E94FD
:10262000581064E670E080E090E00E940B098EE2B2
:102630000E94581064E670E080E090E00E940B0970
:102640008EE20E94581064E670E080E090E00E9404
:102650000B098EE20E94581064EF73E08BE593E162
:102660000E94491264EF73E091CFC33439F58DE2D3
:102670000E94581064E670E080E090E00E940B0930
:102680008EE20E94581064E670E080E090E00E94C4
:102690000B098DE20E94581064E670E080E090E043
:1026A0000E940B098EE20E94581063E575E08BE5ED
:1026B00093E10E94491263E575E068CFC434F1F4F8
:1026C0008DE20E94581064E670E080E090E00E9485
:1026D0000B098EE20E94581064E670E080E090E002
:1026E0000E940B098EE20E9458106CEB7AE08BE599
:1026F00093E10E9449126CEB7AE048CFC53461F453
:102700008EE20E94581063E975E08BE593E10E9428
:10271000491263E975E03ACFC63439F58EE20E947A
:10272000581064E670E080E090E00E940B098EE2B1
:102730000E94581064E670E080E090E00E940B096F
:102740008DE20E94581064E670E080E090E00E9404
:102750000B098EE20E9458106AEB7DE08BE593E155
:102760000E9449126AEB7DE011CFC734F1F48DE28B
:102770000E94581064E670E080E090E00E940B092F
:102780008DE20E94581064E670E080E090E00E94C4
:102790000B098EE20E94581066EF73E08BE593E11F
:1027A0000E94491266EF73E0F1CEC83439F58EE22B
:1027B0000E94581064E670E080E090E00E940B09EF
:1027C0008EE20E94581064E670E080E090E00E9483
:1027D0000B098EE20E94581064E670E080E090E001
:1027E0000E940B098EE20E94581068EF73E08BE59F
:1027F00093E10E94491268EF73E0C8CEC934A9F48E
:102800008EE20E94581064E670E080E090E00E9442
:102810000B098EE20E9458106AEF73E08BE593E19A
:102820000E9449126AEF73E0B1CECA3439F58EE2E4
:102830000E94581064E670E080E090E00E940B096E
:102840008DE20E94581064E670E080E090E00E9403
:102850000B098DE20E94581064E670E080E090E081
:102860000E940B098DE20E9458106CEF73E08BE51B
:1028700093E10E9449126CEF73E088CECB34F1F4FF
:102880008DE20E94581064E670E080E090E00E94C3
:102890000B098EE20E94581064E670E080E090E040
:1028A0000E940B098DE20E9458106CE07DE08BE5E0
:1028B00093E10E9449126CE07DE068CECC3439F59A
:1028C0008EE20E94581064E670E080E090E00E9482
:1028D0000B098DE20E94581064E670E080E090E001
:1028E0000E940B098EE20E94581064E670E080E0BE
:1028F00090E00E940B098EE20E9458106EEF73E088
:102900008BE593E10E9449126EEF73E03FCECD3428
:10291000A9F48DE20E94581064E670E080E090E037
:102920000E940B098DE20E94581068E778E08BE561
:1029300093E10E94491268E778E028CECE34A9F4EA
:102940008DE20E94581064E670E080E090E00E9402
:102950000B098EE20E94581065EC7EE08BE593E156
:102960000E94491265EC7EE011CECF34F1F48DE285
:102970000E94581064E670E080E090E00E940B092D
:102980008DE20E94581064E670E080E090E00E94C2
:102990000B098DE20E94581060E074E08BE593E132
:1029A0000E94491260E074E0F1CDC03539F58EE245
:1029B0000E94581064E670E080E090E00E940B09ED
:1029C0008DE20E94581064E670E080E090E00E9482
:1029D0000B098DE20E94581064E670E080E090E000
:1029E0000E940B098EE20E94581062E074E08BE5B1
:1029F00093E10E94491262E074E0C8CDC13539F517
:102A00008DE20E94581064E670E080E090E00E9441
:102A10000B098DE20E94581064E670E080E090E0BF
:102A20000E940B098EE20E94581064E670E080E07C
:102A300090E00E940B098DE20E94581064E074E05F
:102A40008BE593E10E94491264E074E09FCDC235AA
:102A5000F1F48EE20E94581064E670E080E090E0AD
:102A60000E940B098DE20E94581064E670E080E03D
:102A700090E00E940B098EE20E94581066E074E01C
:102A80008BE593E10E94491266E074E07FCDC33587
:102A9000F1F48EE20E94581064E670E080E090E06D
:102AA0000E940B098EE20E94581064E670E080E0FC
:102AB00090E00E940B098EE20E94581061E17DE0D7
:102AC0008BE593E10E94491261E17DE05FCDC43561
:102AD00061F48DE20E9458106FE27FE08BE593E194
:102AE0000E9449126FE27FE051CDC535F1F48EE2CC
:102AF0000E94581064E670E080E090E00E940B09AC
:102B00008EE20E94581064E670E080E090E00E943F
:102B10000B098DE20E94581068E074E08BE593E1A8
:102B20000E94491268E074E031CDC63539F58EE275
:102B30000E94581064E670E080E090E00E940B096B
:102B40008EE20E94581064E670E080E090E00E94FF
:102B50000B098EE20E94581064E670E080E090E07D
:102B60000E940B098DE20E9458106AE074E08BE528
:102B700093E10E9449126AE074E008CDC735F1F490
:102B80008EE20E94581064E670E080E090E00E94BF
:102B90000B098DE20E94581064E670E080E090E03E
:102BA0000E940B098DE20E9458106CE074E08BE5E6
:102BB00093E10E9449126CE074E0E8CCC83539F525
:102BC0008DE20E94581064E670E080E090E00E9480
:102BD0000B098EE20E94581064E670E080E090E0FD
:102BE0000E940B098EE20E94581064E670E080E0BB
:102BF00090E00E940B098DE20E9458106EE074E094
:102C00008BE593E10E9449126EE074E0BFCCC935B8
:102C100039F58DE20E94581064E670E080E090E0A3
:102C20000E940B098EE20E94581064E670E080E07A
:102C300090E00E940B098DE20E94581064E670E05B
:102C400080E090E00E940B098DE20E94581066EB34
:102C50007CE08BE593E10E94491266EB7CE096CC28
:102C6000CA3539F58DE20E94581064E670E080E0C4
:102C700090E00E940B098DE20E94581064E670E01B
:102C800080E090E00E940B098EE20E94581064E6FA
:102C900070E080E090E00E940B098EE20E945810E4
:102CA00060E174E08BE593E10E94491260E174E019
:102CB0006DCCC13381F58EE20E94581064E670E05D
:102CC00080E090E00E940B098DE20E94581064E6BB
:102CD00070E080E090E00E940B098DE20E945810A5
:102CE00064E670E080E090E00E940B098DE20E94B3
:102CF000581064E670E080E090E00E940B098DE2DD
:102D00000E94581065EB76E08BE593E10E94491232
:102D100065EB76E03BCCC23381F58EE20E94581021
:102D200064E670E080E090E00E940B098EE20E9471
:102D3000581064E670E080E090E00E940B098DE29C
:102D40000E94581064E670E080E090E00E940B0959
:102D50008DE20E94581064E670E080E090E00E94EE
:102D60000B098DE20E94581062E174E08BE593E15B
:102D70000E94491262E174E009CCC33381F58EE20E
:102D80000E94581064E670E080E090E00E940B0919
:102D90008EE20E94581064E670E080E090E00E94AD
:102DA0000B098EE20E94581064E670E080E090E02B
:102DB0000E940B098DE20E94581064E670E080E0EA
:102DC00090E00E940B098DE20E94581062E879E0C1
:102DD0008BE593E10E94491262E879E0D7CBC433D6
:102DE00081F58EE20E94581064E670E080E090E089
:102DF0000E940B098EE20E94581064E670E080E0A9
:102E000090E00E940B098EE20E94581064E670E088
:102E100080E090E00E940B098EE20E94581064E668
:102E200070E080E090E00E940B098DE20E94581053
:102E300064E174E08BE593E10E94491264E174E07F
:102E4000A5CBC53381F58EE20E94581064E670E090
:102E500080E090E00E940B098EE20E94581064E628
:102E600070E080E090E00E940B098EE20E94581012
:102E700064E670E080E090E00E940B098EE20E9420
:102E8000581064E670E080E090E00E940B098EE24A
:102E90000E94581066E279E08BE593E10E944912A6
:102EA00066E279E073CBC63381F58DE20E9458105B
:102EB00064E670E080E090E00E940B098EE20E94E0
:102EC000581064E670E080E090E00E940B098EE20A
:102ED0000E94581064E670E080E090E00E940B09C8
:102EE0008EE20E94581064E670E080E090E00E945C
:102EF0000B098EE20E9458106FEC78E08BE593E1AD
:102F00000E9449126FEC78E041CBC73381F58DE226
:102F10000E94581064E670E080E090E00E940B0987
:102F20008DE20E94581064E670E080E090E00E941C
:102F30000B098EE20E94581064E670E080E090E099
:102F40000E940B098EE20E94581064E670E080E057
:102F500090E00E940B098EE20E94581066E174E036
:102F60008BE593E10E94491266E174E00FCBC83310
:102F700081F58DE20E94581064E670E080E090E0F8
:102F80000E940B098DE20E94581064E670E080E018
:102F900090E00E940B098DE20E94581064E670E0F8
:102FA00080E090E00E940B098EE20E94581064E6D7
:102FB00070E080E090E00E940B098EE20E945810C1
:102FC00068E174E08BE593E10E94491268E174E0E6
:102FD000DDCAC93381F58DE20E94581064E670E0C5
:102FE00080E090E00E940B098DE20E94581064E698
:102FF00070E080E090E00E940B098DE20E94581082
:1030000064E670E080E090E00E940B098DE20E948F
:10301000581064E670E080E090E00E940B098EE2B8
:103020000E94581062EF7AE08BE593E10E9449120A
:1030300062EF7AE0ABCAC03381F58DE20E9458108E
:1030400064E670E080E090E00E940B098DE20E944F
:10305000581064E670E080E090E00E940B098DE279
:103060000E94581064E670E080E090E00E940B0936
:103070008DE20E94581064E670E080E090E00E94CB
:103080000B098DE20E94581063E479E08BE593E12F
:103090000E94491263E479E079CAC132C9F58DE230
:1030A0000E94581064E670E080E090E00E940B09F6
:1030B0008EE20E94581064E670E080E090E00E948A
:1030C0000B098DE20E94581064E670E080E090E009
:1030D0000E940B098EE20E94581064E670E080E0C6
:1030E00090E00E940B098DE20E94581064E670E0A7
:1030F00080E090E00E940B098DE20E94581064ED80
:1031000070E18BE593E10E94491264ED70E13ECAE3
:10311000CF33C9F58EE20E94581064E670E080E07B
:1031200090E00E940B098EE20E94581064E670E065
:1031300080E090E00E940B098DE20E94581064E646
:1031400070E080E090E00E940B098DE20E94581030
:1031500064E670E080E090E00E940B098EE20E943D
:10316000581064E670E080E090E00E940B098EE267
:103170000E9458106CE071E18BE593E10E944912C6
:103180006CE071E103CACE32C9F58EE20E9458109C
:1031900064E670E080E090E00E940B098DE20E94FE
:1031A000581064E670E080E090E00E940B098EE227
:1031B0000E94581064E670E080E090E00E940B09E5
:1031C0008DE20E94581064E670E080E090E00E947A
:1031D0000B098EE20E94581064E670E080E090E0F7
:1031E0000E940B098DE20E94581063E87CE08BE599
:1031F00093E10E94491263E87CE0C8C9CC32C9F56A
:103200008DE20E94581064E670E080E090E00E9439
:103210000B098DE20E94581064E670E080E090E0B7
:103220000E940B098EE20E94581064E670E080E074
:1032300090E00E940B098EE20E94581064E670E054
:1032400080E090E00E940B098DE20E94581064E635
:1032500070E080E090E00E940B098DE20E9458101F
:103260006AE174E08BE593E10E9449126AE174E03F
:103270008DC9CA33C9F58DE20E94581064E670E02A
:1032800080E090E00E940B098DE20E94581064E6F5
:1032900070E080E090E00E940B098DE20E945810DF
:1032A00064E670E080E090E00E940B098EE20E94EC
:1032B000581064E670E080E090E00E940B098EE216
:1032C0000E94581064E670E080E090E00E940B09D4
:1032D0008EE20E94581064E777E08BE593E10E944C
:1032E000491264E777E052C9C03209F053C96CE172
:1032F00074E08BE593E10E9449126CE174E08EEB7F
:1033000092E10E94491261E080E00E94271161E38E
:1033100074E08DE095E10E94711281E090E090935D
:1033200005028093040236C9CF93809120029091C8
:103330002102019709F0B7C01092210210922002D9
:1033400063E474E08BE593E10E94491263E474E066
:103350008EEB92E10E9449126CE674E08BE593E1FA
:103360000E9449126CE674E08EEB92E10E944912D1
:103370000E9459110E949C0F60E087E00E9448045F
:1033800060E088E00E94480460E08CE00E9448040D
:1033900084E690E00E9487108DE40E946C0F61E04B
:1033A0008CE00E94480464E670E080E090E00E94B7
:1033B0000B0960E08CE00E9448040E949C0F84E6A8
:1033C00090E00E94871061E08CE00E9448048DE448
:1033D0000E946C0F0E949D1060E974E08BE593E100
:1033E0000E94491260E974E08EEB92E10E9449125A
:1033F00061EC74E08BE593E10E94491261EC74E0AA
:103400008EEB92E10E94491260E080E00E94271159
:103410006CED74E08DE095E10E94711261E080E056
:103420000E9427116DEE74E08DE095E10E9471120B
:1034300068EE73E080E090E00E940B0960E08CE0B1
:103440000E9448040E949C0F68EE73E080E090E0C8
:103450000E940B090E94591184E690E00E94871097
:1034600088E30E946C0F61E087E00E94480464E6F4
:1034700070E080E090E00E940B090E949C0F60E0E9
:1034800080E00E9427116DEF74E08DE095E10E94CD
:10349000711261E080E00E9427116BE178E08DE01D
:1034A00095E10E9471128EEB92E10E94A70B892B8D
:1034B00009F431C28EEB92E10E94850BC82F8EEB8E
:1034C00092E10E94850B6C2F8BE593E10E94340BF7
:1034D0006FEE73E08BE593E10E94A211E0EEEC0F3A
:1034E000EB3508F70E2E000CFF0B8827E558F54E3C
:1034F0008F4F0C949C5F871C651B531A531A531AE9
:10350000531A531A531A531A531A531A531A831B22
:10351000151B791B531A231C2D1C371C411C4B1CDB
:10352000551C5F1C691C731C7D1C8D1B531A531A80
:10353000531A531A6F1B531AD61AED1AF71A011B96
:103540000B1B1F1B291B331B3D1B471B511B5B1BED
:10355000971BA11BAB1BB51BBF1BC91BD31BDD1BC3
:10356000E71BF11BFB1B051C0F1C191C531A531ADC
:10357000531A531A531A531AD61AED1AF71A011B73
:103580000B1B1F1B291B331B3D1B471B511B5B1BAD
:10359000971BA11BAB1BB51BBF1BC91BD31BDD1B83
:1035A000E71BF11BFB1B051C0F1C191C81E40E946F
:1035B000AC1261E0809104020E94271161E48DE069
:1035C00095E10E94340B80910402909105020196CE
:1035D000909305028093040266CF82E40E94AC12AD
:1035E00061E0809104020E94271162E4E8CF83E445
:1035F0000E94AC1261E0809104020E94271163E4F2
:10360000DECF84E40E94AC1261E0809104020E944B
:10361000271164E4D4CF85E40E94AC1261E080916C
:1036200004020E94271165E4CACF8DE20E94AC1209
:1036300061E0809104020E9427116DE2C0CF86E410
:103640000E94AC1261E0809104020E94271166E49E
:10365000B6CF87E40E94AC1261E0809104020E9420
:10366000271167E4ACCF88E40E94AC1261E080913E
:1036700004020E94271168E4A2CF89E40E94AC12E0
:1036800061E0809104020E94271169E498CF8AE4E6
:103690000E94AC1261E0809104020E9427116AE44A
:1036A0008ECF8BE40E94AC1261E0809104020E94F4
:1036B00027116BE484CF8CE40E94AC1261E080910E
:1036C00004020E9427116CE47ACF81E20E94AC12BE
:1036D00061E0809104020E94271161E270CF8FE3C4
:1036E0000E94AC1261E0809104020E9427116FE3F6
:1036F00066CF8EE20E94AC1261E0809104020E94CB
:1037000027116EE25CCF8CE20E94AC1261E08091E6
:1037100004020E9427116CE252CF8AE30E94AC128D
:1037200061E0809104020E9427116AE348CF8DE492
:103730000E94AC1261E0809104020E9427116DE4A6
:103740003ECF8EE40E94AC1261E0809104020E94A0
:1037500027116EE434CF8FE40E94AC1261E08091B7
:1037600004020E9427116FE42ACF80E50E94AC1268
:1037700061E0809104020E94271160E520CF81E57D
:103780000E94AC1261E0809104020E94271161E561
:1037900016CF82E50E94AC1261E0809104020E9483
:1037A000271162E50CCF83E50E94AC1261E08091A5
:1037B00004020E94271163E502CF84E50E94AC1247
:1037C00061E0809104020E94271164E5F8CE85E54E
:1037D0000E94AC1261E0809104020E94271165E50D
:1037E000EECE86E50E94AC1261E0809104020E9458
:1037F000271166E5E4CE87E50E94AC1261E0809176
:1038000004020E94271167E5DACE88E50E94AC1217
:1038100061E0809104020E94271168E5D0CE89E51D
:103820000E94AC1261E0809104020E94271169E5B8
:10383000C6CE8AE50E94AC1261E0809104020E942B
:1038400027116AE5BCCE80E30E94AC1261E0809152
:1038500004020E94271160E3B2CE81E30E94AC1201
:1038600061E0809104020E94271161E3A8CE82E307
:103870000E94AC1261E0809104020E94271162E371
:103880009ECE83E30E94AC1261E0809104020E940C
:10389000271163E394CE84E30E94AC1261E080912F
:1038A00004020E94271164E38ACE85E30E94AC12D1
:1038B00061E0809104020E94271165E380CE86E3D7
:1038C0000E94AC1261E0809104020E94271166E31D
:1038D00076CE87E30E94AC1261E0809104020E94E0
:1038E000271167E36CCE88E30E94AC1261E08091FF
:1038F00004020E94271168E362CE89E30E94AC12A1
:1039000061E0809104020E94271169E358CE80E2B1
:103910000E94AC12C8CD62E370E080E090E0CF91ED
:103920000C940B09CF93DF93DC0114962D913C91FD
:103930001597232B79F0FB01CD91DC91608171818A
:10394000CE010E94F861009729F08C1B9D0BDF913E
:10395000CF9108958FEF9FEFFACF0F931F93CF93DF
:10396000DF93EC0188819981009759F02A813B818E
:103970002617370730F081E0DF91CF911F910F912B
:1039800008958B016F5F7F4F0E94E460009759F0AC
:10399000998388831B830A832C813D81232B59F7CC
:1039A000FC011082E8CF80E0E7CFEF92FF920F9307
:1039B0001F93CF93DF936115710541F480E0DF9190
:1039C000CF911F910F91FF90EF90089541155105F0
:1039D000B1F07B01EC010C811D81040F151FB801B2
:1039E0000E94AD1C882351F3288139818C819D81EF
:1039F000B701820F931F0E94E2611D830C8381E057
:103A0000DECFCF93DF93EC0188819981009711F08D
:103A10000E945B60198218821D821C821B821A829E
:103A2000DF91CF910895CF93DF93EC01FB010190DB
:103A30000020E9F73197AF01461B570B0E94D51CB8
:103A4000811103C0CE010E94011DCE01DF91CF91F3
:103A50000895CF93DF93EC01FB0144815581608190
:103A600071810E94D51C811103C0CE010E94011DED
:103A7000CE01DF91CF910895EF92FF920F931F93A4
:103A8000CF93DF93EC017B018A01BA010E94AD1C48
:103A900081110BC0CE010E94011DCE01DF91CF919B
:103AA0001F910F91FF90EF9008951D830C83B70134
:103AB000888199810E94E261F0CFFB010190002092
:103AC000E9F73197AF01461B570B0C943C1D0F9340
:103AD0001F93CF93DF93CDB7DEB762970FB6F894FD
:103AE000DEBF0FBECDBF8C01CB01F8011182108269
:103AF00013821282158214824AE0BE016F5F7F4FEB
:103B00000E940757BE016F5F7F4FC8010E945D1D75
:103B100062960FB6F894DEBF0FBECDBFDF91CF9196
:103B20001F910F9108951092C7111092C611109213
:103B3000C5111092C4110E949D1061EF73E08EEBCD
:103B400091E10C945D1DCF93DF93EC01FB0186178F
:103B5000970749F0608171816115710541F04481D9
:103B600055810E943C1DCE01DF91CF9108950E94A6
:103B7000011DF9CFFC01118210821382128215827D
:103B800014820C94A31DFC011182108213821282F4
:103B900015821482FB0101900020E9F73197AF01F3
:103BA000461B570B0C943C1DAF92BF92CF92DF92F5
:103BB000EF92FF920F931F93CF93DF936C015B0102
:103BC0007A0189012417350720F48F2D7901042FFC
:103BD000182F61EF73E0C6010E94C31DD501149632
:103BE000CD91DC91EC16FD06E0F40C171D0708F4EE
:103BF000E801D501ED91FC911197EC0FFD1F1081AB
:103C000010826D917C916E0D7F1DC601611571054D
:103C1000A1F00E945D1DF50180819181C80FD91F1F
:103C20001883C601DF91CF911F910F91FF90EF9004
:103C3000DF90CF90BF90AF9008950E94011DEBCF11
:103C4000FC0180819181009711F00C945B600895D4
:103C5000CF93DF9300D000D0CDB7DEB70E949D1088
:103C600010929A12109299120E949C0F0E94591160
:103C70000E9459116EE075E08BE593E10E944912B4
:103C80006EE075E08EEB92E10E9449128091220273
:103C90009091230281309105A9F562E275E0CE0191
:103CA00001960E94C31D70E060E0CE0101960E9463
:103CB0007312CE0101960E94201E63E375E0CE01CF
:103CC00001960E94C31D61E070E0CE0101960E9442
:103CD0007312CE0101960E94201E60E088E00E94CF
:103CE000480460E087E00E94480460E08CE00E94A5
:103CF000480426960FB6F894DEBF0FBECDBFDF9105
:103D0000CF910895029749F764E475E0CE010196DA
:103D10000E94C31D70E060E0CE0101960E94731204
:103D2000CE0101960E94201E65E575E0C8CFCF93B5
:103D3000DF930E94591110929D1281E0809324021A
:103D4000C1E0D0E0D0932302C093220210929C12D3
:103D50000E949D108AE590E00E9416030E949C0F2D
:103D600060E087E00E94480460E088E00E94480428
:103D700060E08CE00E94480410929B12D0932102D4
:103D8000C093200210929A12109299120E94281E3B
:103D900060E070E0CB01DF91CF910C940B09CF93E1
:103DA000DF930E94591110929D1281E080932402AA
:103DB000C1E0D0E0D0932302C093220210929C1263
:103DC0000E949D108AE590E00E9416030E949C0FBD
:103DD00060E087E00E94480460E088E00E944804B8
:103DE00060E08CE00E94480410929B12D093210264
:103DF000C093200266E675E08BE593E10E944912CC
:103E000066E675E08EEB92E10E94491260E080E088
:103E10000E94271165E875E08DE095E10E9471121E
:103E200061E080E00E94271165E975E08DE095E191
:103E30000E947112D0E0C0E0C0FD3AC00E94170F8E
:103E400085E40E946C0F61E087E00E94480444E62C
:103E500050E060E070E087E194E00E94B60466E420
:103E600070E080E090E00E940B0981E30E94EF0A7D
:103E70000E949C0F60E087E00E94480462E370E0CB
:103E800080E090E00E940B092196C730D105A1F691
:103E900068EE73E080E090E00E940B090E945911E7
:103EA00010929A1210929912DF91CF910C94281EC1
:103EB0000E94100FC5CF85ED8093BC0080910B123E
:103EC00090910C12A0910D12B0910E120796A11DA7
:103ED000B11D23E0B695A795979587952A95D1F7BB
:103EE0002091BC0024FD03C010925412089540910B
:103EF0000B1250910C1260910D1270910E12452B05
:103F0000462B472B69F30097A105B10541F02AE242
:103F10002A95F1F700C00197A109B109E1CF80917D
:103F20000A120C94820DCF92DF92EF92FF921F93B0
:103F3000CF93DF93CDB7DEB762970FB6F894DEBFAD
:103F40000FBECDBF8091200290912102019709F010
:103F50006AC060E087E00E94480460E088E00E9458
:103F6000480460E08CE00E94480465EE75E08BE553
:103F700093E10E94491265EE75E08EEB92E10E949A
:103F800049120E9459110E949C0F0E949D106FEFD0
:103F900075E0CE0101960E94C31D70E060E0CE0185
:103FA00001960E947312CE0101960E94201E6AE0C3
:103FB00076E0CE0101960E94C31D61E070E0CE0163
:103FC00001960E947312CE0101960E94201E84E683
:103FD00090E00E94871084E40E946C0F61E08CE006
:103FE0000E94480464E670E080E090E00E940B09C3
:103FF00060E08CE00E9448040E949C0F84E690E000
:104000000E94871061E08CE00E94480484E40E94D2
:104010006C0F0E949D1010922102109220021092AB
:104020006811109267110E94A609182F8434A1F418
:104030000E94CF1E10929A121092991262960FB699
:10404000F894DEBF0FBECDBFDF91CF911F91FF90DF
:10405000EF90DF90CF900895809167119091681153
:104060008130910509F49DC008F470C0029731F7C2
:104070000E943E09C0906311D0906411E0906511D8
:10408000F09066116C197D098E099F09683B7B4091
:104090008105910598F20E949C0F0E94591161E6DA
:1040A00076E08BE593E10E94491261E676E08EEBC3
:1040B00092E10E9449126FEF75E0CE0101960E94D5
:1040C000C31D70E060E0CE0101960E947312CE0124
:1040D00001960E94201E68E776E0CE0101960E94BC
:1040E000C31D61E070E0CE0101960E947312CE0103
:1040F00001960E94201E60E088E00E94480484E649
:1041000090E00E94871084E40E946C0F61E08CE0D4
:104110000E94480464E670E080E090E00E940B0991
:1041200060E08CE00E9448040E949C0F84E690E0CE
:104130000E94871061E08CE00E94480484E40E94A1
:104140006C0F109268111092671178CF89E20E946B
:104150001C04892B19F0143309F070CF81E090E032
:1041600090936811809367110E943E0960936311D8
:1041700070936411809365119093661186E30E9499
:10418000CB08BC01990F880B990B6115710581054E
:10419000910511F00E94FA5682E390E00E94871088
:1041A0004DCF65E176E08BE593E10E94491265E130
:1041B00076E08EEB92E10E9449120E943E096B016B
:1041C0007C018091631190916411A0916511B0916F
:1041D0006611A7019601281B390B4A0B5B0BDA010C
:1041E000C901843C9940A105B105E8F5C701B601B4
:1041F00022E330E040E050E00E94AC5CCA01B9012B
:104200002AE030E040E050E00E94AC5CCB010E942C
:10421000230F88E790E00E948710C701B60124E6CB
:1042200030E040E050E00E94AC5C61E080E020FDC6
:1042300010C00E94271165E276E08DE095E10E94B2
:10424000711261E08CE00E94480481E30E94EF0A51
:10425000F5CE0E94271162E374E08DE095E10E94A3
:10426000711260E0EFCF60E08CE00E9448040E9491
:10427000AB562AE030E040E050E00E947A5C6B01EF
:1042800066E376E08BE593E10E94491266E376E00F
:104290008EEB92E10E944912B6018BE593E10E94F8
:1042A0003512B6018EEB92E10E9435124AE0C41637
:1042B000D10418F4C6010E94230F0E94591169E429
:1042C00076E0CE0101960E94C31D70E060E0CE0151
:1042D00001960E947312CE0101960E94201EB60123
:1042E000CE0107960E94671D68E576E0CE01019633
:1042F0000E94C31DBE01695F7F4FCE0101960E94DF
:10430000291DBC01CE010D960E94BA1D61E070E02E
:10431000CE010D960E947312CE010D960E94201EB2
:10432000CE0101960E94201ECE0107960E94201EFB
:1043300061E088E00E94480440E050E0BA0187E173
:1043400094E00E94B60482E090E09093681180931C
:1043500067110E943E09609363117093641180930A
:1043600065119093661168EE73E080E090E00E9422
:104370000B096BCF4F925F926F927F928F929F92B9
:10438000AF92BF92CF92DF92EF92FF920F931F9363
:10439000CF93DF9300D000D000D01F92CDB7DEB70F
:1043A0000E94591167E876E0CE0101960E94C31D74
:1043B00070E060E0CE0101960E947312CE0101967A
:1043C0000E94201E65E976E0CE0101960E94C31D81
:1043D00061E070E0CE0101960E947312CE01019659
:1043E0000E94201E0E94E608611571058105910555
:1043F00011F00E94FA560E94AB562DEA3DE040E0D3
:1044000050E00E947A5C6B017C0124ECC20E29E032
:10441000D21EE11CF11C0E943E094B015C010E946E
:104420003E09681979098A099B096C157D058E0575
:104430009F0548F50E94A60989E20E941C040E947B
:10444000A6098434C9F40E94CF1E2A960FB6F894A8
:10445000DEBF0FBECDBFDF91CF911F910F91FF90B7
:10446000EF90DF90CF90BF90AF909F908F907F9014
:104470006F905F904F90089561E070E080E090E071
:104480000E940B09CCCF0E94591162EA76E0CE015E
:1044900001960E94C31D70E060E0CE0101960E946B
:1044A0007312CE0101960E94201E6DEA76E0CE01C5
:1044B00001960E94C31D61E070E0CE0101960E944A
:1044C0007312CE0101960E94201E46E950E060E082
:1044D00070E088EE93E00E94B6040E943E096B01F2
:1044E0007C0110E0812C912C5401809199129091C3
:1044F0009A124097E1F411111AC00E94A60984345F
:1045000021F481E30E94EF0A9ECF813351F40E948F
:104510003E094B015C018C189D08AE08BF0811E0F4
:10452000E4CF89E20E941C04892B89F3DECFC50108
:10453000B40120E63AEE40E050E00E94AC5C290174
:104540003A01C501B40128EE33E040E050E00E949A
:10455000AC5C6B017C01CA01B9012CE330E040E0A6
:1045600050E00E94AC5C6F83788789879A870E94AD
:10457000591160E080E00E94271167EB76E08DE042
:1045800095E10E9471122AE0B301A2018DE095E14C
:104590000E94B1116CEB76E08DE095E10E94711202
:1045A0002AE04F81588569857A858DE095E10E94E2
:1045B000B1116FEB76E08DE095E10E9471122AE077
:1045C000B701A6018DE095E10E94B11162EC76E0A1
:1045D0008DE095E10E947112A0918A12B0918B1228
:1045E00020E63AEE0E94A45F409188125091891211
:1045F00028EE33E0429FF001439FF00D529FF00DF3
:1046000011248F01FF0F220B330B600F711F821FCC
:10461000931F0091861210918712012E000C220B1D
:10462000330B060F171F281F391F80169106A2068D
:10463000B30620F0012B022B032B01F550928B12B5
:1046400040928A126AE872E18AE090E00E946A1160
:104650008F819885909389128093881268E872E11F
:104660008FE090E00E946A11D0928712C092861269
:1046700066E872E184E190E00E946A1161E080E006
:104680000E94271165EC76E08DE095E10E947112A1
:1046900060918A1270918B128DE095E10E942F1229
:1046A0006CEB76E08DE095E10E94711260918812CA
:1046B000709189128DE095E10E942F126FEB76E0E8
:1046C0008DE095E10E9471126091861270918712BF
:1046D0008DE095E10E942F1262EC76E08DE095E18D
:1046E0000E94711268EE73E080E090E00E940B0976
:1046F0008091991290919A12409761F40E94A609B4
:10470000843409F4A0CE811105C089E20E941C0402
:10471000892B71F70E94591198CEFF920F931F9326
:10472000CF93DF93CDB7DEB768970FB6F894DEBFAF
:104730000FBECDBF20919B122111F6C0F62E8C0129
:1047400080915311811109C061EF73E08DE491E113
:104750000E94C31D81E080935311F11069C0F801DC
:104760002481358180915111909152112817390778
:1047700009F05EC08081918160914D1170914E1160
:10478000009709F445C06115710539F4232B09F42C
:10479000CBC0FC01808190E048C00E94D96145C037
:1047A00067E67DE0CE0101960E94C31DBE016F5FEA
:1047B0007F4FC8010E94921C8C01CE0101960E947D
:1047C000201E0F3F1F4F09F4AFC061E087E00E9439
:1047D000480460E0A2C082309105A9F46CE577E05E
:1047E000CE0101960E94C31DBE016F5F7F4FC801BD
:1047F0000E94921C8C01CE0101960E94201E0F3F48
:104800001F4F19F785C0039709F08EC060E0DECF17
:104810006115710509F488C0232B09F485C0FB01DB
:10482000808190E0919581959109892B09F47CC054
:10483000B801CE0101960E94BA1D61E070E0CE0180
:1048400001960E947312CE0101960E94201EB801AB
:104850008DE491E10E94A31D8091991290919A128A
:104860008130910509F0B7CF6FE27DE0CE0143962C
:104870000E94C31DBE016D5E7F4FC8010E94921C45
:10488000FF24F3940196E9F56EE37DE0CE010D96E9
:104890000E94C31DBE01635F7F4FC8010E94921C2E
:1048A000FF24F394019649F561E17EE0CE0107967D
:1048B0000E94C31DBE01695F7F4FC8010E94921C08
:1048C000FF24F3940196A9F46EE17EE0CE010196F7
:1048D0000E94C31DBE016F5F7F4FC8010E94921CE2
:1048E000FF24F394019609F4F12CCE0101960E9465
:1048F000201ECE0107960E94201ECE010D960E941A
:10490000201ECE0143960E94201EFF2009F448CFAE
:1049100060E087E00E94480461E088E00E9448046B
:1049200060E08CE00E94480468960FB6F894DEBF01
:104930000FBECDBFDF91CF911F910F91FF900895D2
:104940008F929F92BF92CF92DF92EF92FF920F933E
:104950001F93CF93DF93CDB7DEB7C059D1090FB600
:10496000F894DEBF0FBECDBF80912002909121024E
:104970009E012F5F3F4F7901019761F50E94591108
:104980006EEF77E0C7010E94C31D70E060E0C701D1
:104990000E947312C7010E94201E6EE078E0C701DA
:1049A0000E94C31D61E070E0C7010E947312C7013D
:1049B0000E94201E10922102109220026DE178E0E8
:1049C0008BE593E10E9449126DE178E08EEB92E174
:1049D0000E9449120E949C0F0E949D108AE590E05F
:1049E0000E94160360E087E00E94480460E088E0CF
:1049F0000E94480460E08CE00E9448046AE378E08A
:104A0000C7010E94C31D6BE578E0CE0107960E94A6
:104A1000C31D6AE778E0CE010D960E94C31D6FE7C3
:104A200071E1CE018B579F4F0E94671DBE016B57EE
:104A30007F4FCE0185579F4F0E94BA1D65E978E0F0
:104A4000CE0185579F4F0E94131DBC01CE01439696
:104A50000E94BA1DCE0185579F4F0E94201ECE0195
:104A60008B579F4F0E94201E60EB78E0CE01499645
:104A70000E94C31D61ED78E0CE014F960E94C31DD8
:104A80006FEE78E0CE0185960E94C31D6AE079E062
:104A9000CE018B960E94C31D68E279E0CE01C196DB
:104AA0000E94C31D65E479E0CE01C7960E94C31D34
:104AB00064E679E0CE01CD960E94C31D64E879E0FA
:104AC000CE018D5B9F4F0E94C31D6FE979E0CE013F
:104AD000875B9F4F0E94C31D61EC79E0CE01815B33
:104AE0009F4F0E94C31D6EED79E0CE018B5A9F4F00
:104AF0000E94C31D6CEF79E0CE01855A9F4F0E9442
:104B0000C31D6DE07AE0CE018F599F4F0E94C31DF7
:104B100066E27AE0CE0189599F4F0E94C31D62E48C
:104B20007AE0CE0183599F4F0E94C31D6EE57AE063
:104B3000CE018D589F4F0E94C31D6EE77AE0CE01D3
:104B400087589F4F0E94C31D62EA7AE0CE018158C8
:104B50009F4F0E94C31D0E943E0900916B1110914E
:104B60006C1120916D1130916E11601B710B820BD5
:104B7000930B643C79408105910508F4FCC00E94C8
:104B80003E0960936B1170936C1180936D1190933B
:104B90006E110E94591160E080E00E9427118091FF
:104BA000691190916A1126E0B22EB89E6001B99EFB
:104BB000D00C1124CE0CDF1CF60184819581892B49
:104BC00009F4F7C0808091806AE070E0C4010E941F
:104BD000CE61009709F4EDC08C01081919090F3F47
:104BE000100709F4E6C0980150E040E0B601CE019C
:104BF0008B579F4F0E94D41DBE016B577F4F8DE096
:104C000095E10E943B0BCE018B579F4F0E94201EC7
:104C100061E080E00E9427118091691190916A11F2
:104C200068012FEFC21AD20AB89EB001B99E700D6A
:104C300011246E0D7F1DFB0124813581A601CE015B
:104C40008B579F4F0E94D41DBE016B577F4F8DE045
:104C500095E10E943B0BCE018B579F4F0E94201E77
:104C60008091691190916A11B89EB001B99E700D42
:104C700011246E0D7F1D980150E040E0CE018B574E
:104C80009F4F0E94D41DBE016B577F4F8BE593E170
:104C90000E945D12CE018B579F4F0E94201E809173
:104CA000691190916A11B89EB001B99E700D1124DE
:104CB0006E0D7F1DFB0124813581A601CE018B572E
:104CC0009F4F0E94D41DBE016B577F4F8BE593E130
:104CD0000E945D12CE018B579F4F0E94201E809133
:104CE000691190916A11B89EB001B99E700D11249E
:104CF0006E0D7F1D980150E040E0CE018B579F4F15
:104D00000E94D41DBE016B577F4F8EEB92E10E9433
:104D10005D12CE018B579F4F0E94201E809169111A
:104D200090916A11B89EB001B99E700D11246E0D5C
:104D30007F1DFB0124813581A601CE018B579F4F3A
:104D40000E94D41DBE016B577F4F8EEB92E10E94F3
:104D50005D12CE018B579F4F0E94201E80916911DA
:104D600090916A110196863191050CF054C0909390
:104D70006A11809369118E010B571F4F065011095C
:104D8000C8010E94201EE016F106C1F7C057DF4F90
:104D90000FB6F894DEBF0FBECDBFDF91CF911F914C
:104DA0000F91FF90EF90DF90CF90BF909F908F90EA
:104DB0000895B601CE018B579F4F0E94BA1D70E037
:104DC00060E0CE018B579F4F0E947312CE018B572C
:104DD0009F4F0E94201E8091691190916A1116E0E8
:104DE000189FB001199F700D11246E0D7F1D8BE56A
:104DF00093E10E945D128091691190916A11189F50
:104E0000B001199F700D11246E0D7F1D8EEB92E184
:104E10000E945D12A3CF10926A1110926911ABCF5C
:104E20000F931F9360E08BE20E94480483E090E0C0
:104E30000197F1F761E08BE20E94480483E290E081
:104E40000197F1F760E08BE20E944804E9EFF4E09B
:104E50006491E9E5F5E0E491F0E0EE0FFF1FE3591E
:104E6000FB4F8591949108EA11E620E030E0462F4F
:104E70000E94593F611571058105910529F06F5F09
:104E80007F4F8F4F9F4F9F700E94445B28E23EE709
:104E90004CE05DE30E94A35B20E030E040E05FE394
:104EA0000E94A35B0E94BC5D1F910F910895CF9259
:104EB000DF92EF92FF920F931F93CF93DF9300D077
:104EC00000D0CDB7DEB780912002909121020197EA
:104ED00081F410922102109220026EEB7AE08BE5B1
:104EE00093E10E9449126EEB7AE08EEB92E10E9410
:104EF00049120E943E090091BA111091BB112091F4
:104F0000BC113091BD11601B710B820B930B643F80
:104F100071408105910508F449C00E943E096093E3
:104F2000BA117093BB118093BC119093BD1188E0AE
:104F300090E00E94230F60E087E00E94480460E058
:104F400088E00E94480460E08CE00E9448040091E0
:104F5000B8111091B91161E087E00115110551F008
:104F600061E088E00130110529F00230110521F4DB
:104F700061E08CE00E94480482E390E00E94871088
:104F800060E087E00E94480460E088E00E944804F6
:104F900060E08CE00E944804C801019663E070E084
:104FA0000E94885F9093B9118093B81160E080E00F
:104FB0000E94271165EE7AE08DE095E10E94711262
:104FC0000E9410276B017C018AE0C816D104E1041D
:104FD000F1044CF563E479E08DE095E10E947112F3
:104FE000B701A6018DE095E10E94FD1163E77EE027
:104FF0008DE095E10E947112E091B611F091B71128
:10500000E930F10508F041C08827E65FF74D8F4F82
:105010000C949C5F202854288D28C628FF28382906
:105020007129AA29E32924E6C216D104E104F10476
:10503000BCF261EF7AE08DE095E10E947112D6CF6B
:105040000E949D108AE590E00E94160364EF7AE0CA
:10505000CE0101960E94C31D60E0CE0101960E9420
:105060008D23CE0101960E94201E81E090E0909356
:10507000B7118093B6110E943E096093B2117093EC
:10508000B3118093B4119093B51126960FB6F8948E
:10509000DEBF0FBECDBFDF91CF911F910F91FF906B
:1050A000EF90DF90CF9008950E94E7100E943E0994
:1050B0000091B2111091B3112091B4113091B5113A
:1050C000601771078207930779F46FE27DE0CE01E4
:1050D00001960E94C31D60E0CE0101960E948D23BF
:1050E000CE0101960E94201E0E943E090091B2113D
:1050F0001091B3112091B4113091B511601B710B57
:10510000820B930B683E73408105910508F4BDCF77
:105110000E949D1082E090E0AACF0E94D7100E94CA
:105120003E090091B2111091B3112091B411309148
:10513000B511601771078207930779F46EE37DE07C
:10514000CE0101960E94C31D60E0CE0101960E942F
:105150008D23CE0101960E94201E0E943E090091DF
:10516000B2111091B3112091B4113091B511601B9F
:10517000710B820B930B683E73408105910508F417
:1051800084CF0E949D1083E090E071CF0E94C710F1
:105190000E943E090091B2111091B3112091B411F7
:1051A0003091B511601771078207930779F461E1B7
:1051B0007EE0CE0101960E94C31D60E0CE01019603
:1051C0000E948D23CE0101960E94201E0E943E095E
:1051D0000091B2111091B3112091B4113091B51119
:1051E000601B710B820B930B683E73408105910528
:1051F00008F44BCF0E949D1084E090E038CF0E94CD
:10520000B7100E943E090091B2111091B311209184
:10521000B4113091B511601771078207930779F4C3
:105220006EE17EE0CE0101960E94C31D60E0CE01DA
:1052300001960E948D23CE0101960E94201E0E949D
:105240003E090091B2111091B3112091B411309127
:10525000B511601B710B820B930B683E7340810587
:10526000910508F412CF0E949D1085E090E0FFCEDA
:1052700090E080E00E9416030E943E090091B21166
:105280001091B3112091B4113091B51160177107CD
:105290008207930779F46FEF7AE0CE0101960E94BE
:1052A000C31D60E0CE0101960E948D23CE010196C0
:1052B0000E94201E0E943E090091B2111091B3116C
:1052C0002091B4113091B511601B710B820B930BBF
:1052D000683E73408105910508F4D7CE86E090E0E2
:1052E000C6CE8AE590E00E9416030E943E09009116
:1052F000B2111091B3112091B4113091B511601712
:1053000071078207930779F46AE07BE0CE0101968A
:105310000E94C31D60E0CE0101960E948D23CE0144
:1053200001960E94201E0E943E090091B211109128
:10533000B3112091B4113091B511601B710B820B28
:10534000930B683E73408105910508F49ECE87E07B
:1053500090E08DCE84EB90E00E9416030E943E09FF
:105360000091B2111091B3112091B4113091B51187
:10537000601771078207930779F469E17BE0CE013A
:1053800001960E94C31D60E0CE0101960E948D230C
:10539000CE0101960E94201E0E943E090091B2118A
:1053A0001091B3112091B4113091B511601B710BA4
:1053B000820B930B683E73408105910508F465CE1E
:1053C00088E090E054CE0E949D108AE590E00E9413
:1053D000160360E087E00E94480460E088E00E94D5
:1053E000480460E08CE00E94480465E27BE0CE0166
:1053F00001960E94C31D60E0CE0101960E948D239C
:10540000CE0101960E94201E40E050E0BA0183E8E0
:1054100090E00E94B6041092B7111092B6110E944B
:105420003E096093B2117093B3118093B4119093BD
:10543000B51168EE73E080E090E00E940B0981E313
:105440000E94EF0A6CED75E080E090E00E940B098D
:105450000E94971E1ACECF92DF92EF92FF92CF93C7
:10546000DF93CDB7DEB72C970FB6F894DEBF0FBE33
:10547000CDBF80912002909121020197B1F48AE082
:1054800090E090936211809361111092210210922A
:10549000200267EA7BE08BE593E10E94491267EA0C
:1054A0007BE08EEB92E10E9449120E943E096B0163
:1054B0007C012AEFC216D104E104F104A0F082E4D9
:1054C0000E94CB08813233E093070CF4A8C080918E
:1054D0006111909162119C01215031090597283288
:1054E000310508F4A9C060E087E00E94480460E04C
:1054F00088E00E94480480915D1190915E11A09116
:105500005F11B0916011A7019601281B390B4A0B5E
:105510005B0BDA01C9018C329140A105B105C0F0E5
:10552000C0925D11D0925E11E0925F11F092601115
:105530008091060291E0892780930602882309F46E
:105540008AC086E40E946C0F61E08CE00E944804EF
:105550000E9410276B017C0160E080E00E9427110F
:1055600065EE7AE08DE095E10E9471124AE0C41682
:10557000D104E104F1040CF072C063E479E08DE041
:1055800095E10E947112B701A6018DE095E10E949C
:10559000FD1163E77EE08DE095E10E94711261E00C
:1055A00080E00E9427116091611170916211CE011B
:1055B00007960E94671D6CE57BE0CE0101960E9474
:1055C000C31DBE01695F7F4FCE0101960E94291D58
:1055D00066EC7BE00E94131DBC018DE095E10E940A
:1055E0003B0BCE0101960E94201ECE0107960E9421
:1055F000201E80915B1190915C11009709F45EC0B0
:105600000197D9F12C960FB6F894DEBF0FBECDBF2F
:10561000DF91CF91FF90EF90DF90CF9008958A3F78
:1056200091050CF060CF80916111909162118832E8
:10563000910508F058CF05969093621180936111FF
:1056400082E390E00E9487106AEF70E080E090E0D3
:105650000E940B0948CF0E949C0F60E076CF54E671
:10566000C516D104E104F1040CF48DCF61EF7AE0AA
:105670008DE095E10E9471128CCF80916111909123
:10568000621144E150E0481B590B052E000C660BDB
:10569000770BC416D506E606F7061CF40E94D71051
:1056A000B1CF4496092E000CAA0BBB0B8C159D059F
:1056B000AE05BF051CF40E94E710A4CF0E949D1008
:1056C000A1CF2F923F924F925F926F927F92AF92B3
:1056D000BF92CF92DF92EF92FF920F931F93CF93DF
:1056E000DF93CDB7DEB7A8970FB6F894DEBF0FBE35
:1056F000CDBF83E40E94CB082FEF30E0DC010E9495
:10570000A45F2FEF33E040E050E00E947A5C290173
:105710003A01B9018BE00E94F4070E94E6086B0190
:105720007C0180910E1190910F11A0911011B091F8
:105730001111A7019601281B390B4A0B5B0BDA01EB
:10574000C90188389341A105B10540F0C0920E11FE
:10575000D0920F11E0921011F0921111A8E8B3E16C
:10576000A30192010E94995C2FEF30E040E050E0ED
:105770000E94AC5C80910E1190910F11A0911011BC
:10578000B0911111C81AD90AEA0AFB0A61E0C216DF
:10579000D306E406F50608F060E08AE00E944804BB
:1057A0000E94A609182F833209F05CC080919912DB
:1057B00090919A129C01215031092230310530F02C
:1057C0008530910519F00A9709F04CC082E390E00A
:1057D0000E94871080919B1201E0802780939B128A
:1057E000882309F4DEC00E949D100E94591160E0D8
:1057F00082E00E94271160ED7BE0CE0101960E94BD
:10580000C31D70E060E0CE0101960E947312CE01CC
:1058100001960E94201E61E080E00E9427116DED3C
:105820007BE0CE0101960E94C31D61E070E0CE01D5
:1058300001960E947312CE0101960E94201E80E5FF
:105840000E946C0F0E943E0960935D1170935E117F
:1058500080935F11909360110093060260E088E0EE
:105860000E944804E0909912F0909A12C7010197A3
:10587000029740F045E0E416F10421F05AE0E51605
:10588000F104E9F580919B128823C9F10E943E0939
:105890002B013C0160E08CE00E94480460E088E05D
:1058A0000E94480480915D1190915E11A0915F115A
:1058B000B0916011A3019201281B390B4A0B5B0BBD
:1058C000DA01C9018C329140A105B105C0F04092C6
:1058D0005D1150925E1160925F1170926011809123
:1058E000060291E0892780930602882309F471C09B
:1058F00080E50E946C0F61E087E00E944804E1149B
:10590000F10411F00C94243BE0902202F090230269
:1059100041E0E416F10411F40C940B3B82E40E9484
:10592000CB088132934014F40C94073B0E949C0FE7
:105930000E94AC0F40E050E0BA0187E194E00E9481
:10594000B60461E088E00E94480481E090E0909312
:105950002302809322020E94281E81E30E94EF0A04
:1059600060E088E00E94480468EC70E080E090E02D
:105970000E940B09A8960FB6F894DEBF0FBECDBFEC
:10598000DF91CF911F910F91FF90EF90DF90CF901B
:10599000BF90AF907F906F905F904F903F902F900F
:1059A00008950E94591165E974E1CE0101960E94A3
:1059B000BA1D61E0CE0101960E948D23CE010196B1
:1059C0000E94201E60E087E00E9448040E94591156
:1059D00049CF0E949C0F60E08FCF123309F089C13C
:1059E0008EEB92E10E94A70B892B51F08EEB92E196
:1059F0000E94990BC29721F48EEB92E10E94850BD5
:105A00000E949C0F61E08AE10E94480461E08BE102
:105A10000E94480461E08CE10E9448040E945911F0
:105A200060E087E00E94480460E088E00E9448044B
:105A300061E08CE00E9448046DE07CE08BE593E13E
:105A40000E9449126DE07CE08EEB92E10E944912C7
:105A500069E37CE0CE0101960E94C31D70E060E026
:105A6000CE0101960E947312CE0101960E94201E63
:105A70006AE47CE0CE0101960E94C31D61E070E003
:105A8000CE0101960E947312CE0101960E94201E43
:105A90000E949D108DE290E00E94160384E1ECE6E6
:105AA000F2E0DE01559601900D928A95E1F784E1CE
:105AB000E0E8F2E0DE01119601900D928A95E1F79F
:105AC000CE0101967C016E0195E1C90ED11C5601F3
:105AD00058E5652E52E0752EF701619171917F01B5
